:020000040800F2
:1000000000800020C92C0008071C0008131C0008F1
:10001000191C00081F1C0008251C00080000000017
:100020000000000000000000000000002B1C000881
:10003000371C000800000000431C00084F1C00088B
:10004000192D0008192D00085D1C0008192D000845
:10005000192D0008192D0008192D0008192D000868
:10006000192D0008192D0008192D0008192D000858
:10007000192D0008192D0008192D0008811C0008F1
:10008000192D0008192D0008192D0008192D000838
:1000900000000000192D0008192D0008192D000876
:1000A000192D0008192D0008192D0008192D000818
:1000B000192D0008192D0008192D0008192D000808
:1000C000192D0008192D0008192D0008192D0008F8
:1000D000951C0008192D0008192D0008192D00087D
:1000E000192D0008711C0008A91C0008192D000812
:1000F000192D00080000000000000000192D000864
:10010000192D0008192D0008BD1C0008192D000824
:10011000192D0008192D0008192D0008192D0008A7
:10012000192D0008192D0008192D0008192D000897
:08013000192D0008192D00082B
:1001380010B5054C237833B9044B13B10448AFF319
:1001480000800123237010BDA801002000000000DA
:10015800C09F010808B5034B1BB103490348AFF31F
:10016800008008BD00000000AC010020C09F01080D
:10017800034613F8012B002AFBD1181A01387047DF
:1001880081F0004102E000BF83F0004330B54FEA40
:1001980041044FEA430594EA050F08BF90EA020FAD
:1001A8001FBF54EA000C55EA020C7FEA645C7FEA40
:1001B800655C00F0E2804FEA5454D4EB5555B8BF63
:1001C8006D420CDD2C4480EA020281EA030382EAD4
:1001D800000083EA010180EA020281EA0303362D66
:1001E80088BF30BD11F0004F4FEA01314FF4801C39
:1001F8004CEA113102D0404261EB410113F0004F4B
:100208004FEA03334CEA133302D0524263EB430301
:1002180094EA050F00F0A780A4F10104D5F1200E9F
:100228000DDB02FA0EFC22FA05F2801841F10001FA
:1002380003FA0EF2801843FA05F359410EE0A5F1CE
:1002480020050EF1200E012A03FA0EFC28BF4CF0FF
:10025800020C43FA05F3C01851EBE37101F00045B5
:1002680007D54FF0000EDCF1000C7EEB00006EEBC2
:100278000101B1F5801F1BD3B1F5001F0CD349084C
:100288005FEA30004FEA3C0C04F101044FEA4452A3
:1002980012F5800F80F09A80BCF1004F08BF5FEA2A
:1002A800500C50F1000041EB045141EA050130BD0A
:1002B8005FEA4C0C404141EB0101013C28BFB1F51C
:1002C800801FE9D291F0000F04BF01460020B1FA67
:1002D80081F308BF2033A3F10B03B3F120020CDA3A
:1002E8000C3208DD02F1140CC2F10C0201FA0CF018
:1002F80021FA02F10CE002F11402D8BFC2F1200C7D
:1003080001FA02F120FA0CFCDCBF41EA0C01904032
:10031800E41AA2BF01EB0451294330BD6FEA04047B
:100328001F3C1CDA0C340EDC04F11404C4F1200266
:1003380020FA04F001FA02F340EA030021FA04F378
:1003480045EA030130BDC4F10C04C4F1200220FACF
:1003580002F001FA04F340EA0300294630BD21FA0D
:1003680004F0294630BD94F0000F83F4801306BFD3
:1003780081F480110134013D4EE77FEA645C18BFC7
:100388007FEA655C29D094EA050F08BF90EA020F5E
:1003980005D054EA000C04BF1946104630BD91EA56
:1003A800030F1EBF0021002030BD5FEA545C05D159
:1003B8004000494128BF41F0004130BD14F5800498
:1003C8003CBF01F5801130BD01F0004545F0FE410C
:1003D80041F470014FF0000030BD7FEA645C1ABF41
:1003E800194610467FEA655C1CBF0B46024650EA78
:1003F800013406BF52EA033591EA030F41F40021A4
:1004080030BD00BF90F0000F04BF0021704730B529
:100418004FF4806404F132044FF000054FF00001FE
:1004280050E700BF90F0000F04BF0021704730B5BF
:100438004FF4806404F1320410F0004548BF404294
:100448004FF000013EE700BF42004FEAE2014FEAE9
:1004580031014FEA02701FBF12F07F4393F07F4FC4
:1004680081F06051704732F07F4208BF704793F0C7
:100478007F4F04BF41F40021704730B54FF46074DA
:1004880001F0004521F000411CE700BF50EA0102DD
:1004980008BF704730B54FF000050AE050EA010286
:1004A80008BF704730B511F0004502D5404261EBF6
:1004B80041014FF4806404F132045FEA915C3FF437
:1004C800D8AE4FF003025FEADC0C18BF03325FEAD4
:1004D800DC0C18BF033202EBDC02C2F1200300FA85
:1004E80003FC20FA02F001FA03FE40EA0E0021FAAA
:1004F80002F11444BDE600BF4FF0FF3C06E000BF28
:100508004FF0010C02E000BF4FF0010C4DF804CD94
:100518004FEA410C7FEA6C5C4FEA430C18BF7FEA54
:100528006C5C1BD001B050EA410C0CBF52EA430C82
:1005380091EA030F02BF90EA020F0020704710F102
:10054800000F91EA030F58BF994208BF90422CBF91
:10055800D8176FEAE37040F0010070474FEA410C8A
:100568007FEA6C5C02D150EA013C07D14FEA430CA8
:100578007FEA6C5CD6D152EA033CD3D05DF8040B19
:10058800704700BF8446104662468C46194663464B
:1005980000E000BF01B5FFF7B7FF002848BF10F122
:1005A800000F01BD4DF808EDFFF7F4FF0CBF012067
:1005B80000205DF808FB00BF4DF808EDFFF7EAFFE3
:1005C80034BF012000205DF808FB00BF4DF808ED9E
:1005D800FFF7E0FF94BF012000205DF808FB00BF93
:1005E8004DF808EDFFF7CEFF94BF012000205DF81D
:1005F80008FB00BF4DF808EDFFF7C4FF34BF01202A
:1006080000205DF808FB00BF4FEA410212F5001216
:1006180015D211D56FF47873B3EB625212D94FEA41
:10062800C12343F0004343EA505311F0004F23FA2B
:1006380002F018BF404270474FF00000704750EA80
:10064800013005D111F0004008BF6FF0004070473D
:100658004FF00000704700BF80F0004002E000BF8C
:1006680081F0004142001FBF5FEA410392EA030F95
:100678007FEA226C7FEA236C6AD04FEA1262D2EBDF
:100688001363C1BFD218414048404140B8BF5B42E4
:10069800192B88BF704710F0004F40F4000020F07D
:1006A8007F4018BF404211F0004F41F4000121F093
:1006B8007F4118BF494292EA030F3FD0A2F10102DD
:1006C80041FA03FC10EB0C00C3F1200301FA03F11B
:1006D80000F0004302D5494260EB4000B0F5000F3E
:1006E80013D3B0F1807F06D340084FEA310102F1FD
:1006F8000102FE2A51D2B1F1004F40EBC25008BFAF
:1007080020F0010040EA03007047490040EB000078
:10071800013A28BFB0F5000FEDD2B0FA80FCACF179
:10072800080CB2EB0C0200FA0CF0AABF00EBC250A6
:1007380052421843BCBFD0401843704792F0000F94
:1007480081F4000106BF80F400000132013BB5E7E7
:100758004FEA41037FEA226C18BF7FEA236C21D05D
:1007680092EA030F04D092F0000F08BF08467047C2
:1007780090EA010F1CBF0020704712F07F4F04D190
:10078800400028BF40F00040704712F100723CBFA3
:1007980000F50000704700F0004343F0FE4040F4CD
:1007A800000070477FEA226216BF08467FEA23638B
:1007B8000146420206BF5FEA412390EA010F40F476
:1007C800800070474FF0000304E000BF10F00043C2
:1007D80048BF40425FEA000C08BF704743F09643A9
:1007E80001464FF000001CE050EA010208BF7047C4
:1007F8004FF000030AE000BF50EA010208BF70474B
:1008080011F0004302D5404261EB41015FEA010C5F
:1008180002BF84460146002043F0B64308BFA3F157
:100828008053A3F50003BCFA8CF2083AA3EBC25339
:1008380010DB01FA02FC634400FA02FCC2F1200258
:10084800BCF1004F20FA02F243EB020008BF20F08F
:100858000100704702F1200201FA02FCC2F12002F5
:1008680050EA4C0021FA02F243EB020008BF20EAEA
:10087800DC7070477BB972B90029BEBF00204FF009
:10088800004106E008BF00281CBF6FF000414FF090
:10089800FF3000F0B7B9ADF1080C6DE904CE0029BE
:1008A80009DB002B1ADB00F04DF8DDF804E0DDE988
:1008B800022304B07047404261EB4101002B1BDB6F
:1008C80000F040F8DDF804E0DDE9022304B040421E
:1008D80061EB4101524263EB43037047524263EBC1
:1008E800430300F02FF8DDF804E0DDE9022304B04B
:1008F800404261EB41017047524263EB430300F011
:1009080021F8DDF804E0DDE9022304B0524263EB8C
:100918004303704753B94AB9002908BF00281CBFD0
:100928004FF0FF314FF0FF3000F06CB9ADF1080C1B
:100938006DE904CE00F006F8DDF804E0DDE90223F5
:1009480004B070472DE9F047089E0D4604468E46D0
:10095800002B40F082808A42174646D9B2FA82F2CA
:100968004AB1C2F1200105FA02F320FA01F19740D9
:1009780041EA030E94404FEA1748230CBEFBF8FCEB
:10098800B9B208FB1CEE43EA0E430CFB01F0984297
:100998000AD9FB180CF1FF3580F01681984240F215
:1009A8001381ACF1020C3B441B1AA4B2B3FBF8F060
:1009B80008FB103344EA034400FB01F1A14209D9C2
:1009C8003C1900F1FF3380F00181A14240F2FE8022
:1009D80002383C44641A40EA0C4000211EB1D4405D
:1009E8000023C6E90043BDE8F08702B9FFDEB2FA8A
:1009F80082F2002A4FD1CB1B4FEA174E1FFA87F815
:100A08000121B3FBFEFC250C0EFB1C3345EA034514
:100A180008FB0CF3AB4207D97D190CF1FF3002D269
:100A2800AB4200F2E7808446ED1AA3B2B5FBFEF0B4
:100A38000EFB105543EA054408FB00F8A04507D90A
:100A48003C1900F1FF3302D2A04500F2D7801846C6
:100A5800A4EB080440EA0C40C0E78B4208D9002EFA
:100A680000F0AF800021C6E900050846BDE8F08720
:100A7800B3FA83F100294BD1AB4202D3824200F290
:100A8800B780841A65EB030301209E46002EAAD086
:100A9800C6E9004EA7E7C2F1200C01FA02F397401D
:100AA80020FA0CF04FEA174E21FA0CFC1843BCFB55
:100AB800FEF1050C0EFB11CC1FFA87F845EA0C4530
:100AC80001FB08F3AB4204FA02F409D97D1901F1DC
:100AD800FF3C80F08B80AB4240F2888002393D4475
:100AE800EB1A85B2B3FBFEF00EFB103345EA034563
:100AF80000FB08F3AB4207D97D1900F1FF3C71D226
:100B0800AB426FD902383D44EB1A40EA014178E71D
:100B1800C1F1200C8B4022FA0CF71F4320FA0CF489
:100B280005FA01F34FEA174E25FA0CF51C43230C7E
:100B3800B5FBFEF91FFA87F80EFB195543EA054580
:100B480009FB08FAAA4502FA01F200FA01F308D9EA
:100B58007D1909F1FF3047D2AA4545D9A9F1020903
:100B68003D44A5EB0A05A4B2B5FBFEF00EFB1055FB
:100B780044EA054400FB08F8A04507D93C1900F1F0
:100B8800FF352DD2A0452BD902383C4440EA094014
:100B9800A4EB0804A0FB02894C45C6464D4619D370
:100BA80016D05EB1B3EB0E0264EB050404FA0CFC3C
:100BB800CA404CEA0202CC40C6E900240021BDE844
:100BC800F087314630460EE7AC46EDE6184601E7B9
:100BD8004345E6D2B8EB020E69EB07050138E0E7BA
:100BE8002846D3E760468FE78146BAE7614677E74C
:100BF80008464BE7ACF1020C3D4415E702383C448B
:100C080026E700BF704700BF80B500AF01F0E0F8ED
:100C180000F00AF800BF80BD80B500AF4FF0FF308C
:100C280018F0B4F900BF80BD80B584B004AF0020CF
:100C380000F012FC002000F041FC0121002000F02F
:100C480069FC002302930023019301230093244BA2
:100C580000220021022017F043FE01230293022301
:100C68000193022300931F4B00220021022017F05A
:100C780037FE0123029306230193002300931A4BA6
:100C880000220021022017F02BFE184A0021012023
:100C980018F060FA164A0021022018F05BFA00F0FA
:100CA800EBF914480AF01EFC13480AF061FC134BD8
:100CB8001B7818460AF0A2FD00230093104B00226F
:100CC8004FF0FF310F4818F0DFFB42F210710D486A
:100CD80018F0EEFC0B4818F00DFC00BFBD4680BDB7
:100CE800D89F0108F89F010818A001085DB70008FF
:100CF800610E00080C0000202400002008000020DD
:100D0800310F0008B802002080B582B000AF03465A
:100D1800FB80FB88B3F5005F04D10021022018F0A6
:100D28003BFA00E000BF00BF0837BD4680BD0000A9
:100D3800B0B588B006AF786039607B68002B75D095
:100D48003B68002B72D03E4B00220021022017F096
:100D5800C7FD3B689B683A6892F90C201146394AEE
:100D680052F82120796809780846396891F9021003
:100D78000C46396891F903100D46396891F9041049
:100D88000591049503940290019200932E4B002242
:100D98000021032017F0A4FD7B681B78022B21D0CB
:100DA800032B45D17B685B78012B17D17B685B6887
:100DB8001B78022B0ED0022B12DC002B02D0012B49
:100DC80004D00DE000200AF069FE0AE001200AF0D4
:100DD80065FE06E002200AF061FE02E000BF2AE09C
:100DE80000BF28E07B685B78012B23D17B685B68B8
:100DF8001B7803F00103DAB2144B1A70134B1B78FB
:100E0800012B09D1124B00220021032017F068FDA5
:100E1800002000F069FB0DE00E4B002200210320AA
:100E280017F05EFD002000F049FB03E000BF02E080
:100E380000BF00E000BF00BF0837BD46B0BD00BF1F
:100E480038A001082C0000206CA00108B602002080
:100E5800B4A00108C0A0010880B584B002AF002387
:100E68003B600023FB800023BB8001F023F901F0E5
:100E7800D7F90346BB80284B5B68BA8811461846E9
:100E880001F05AFABB88184601F096FA224B5B68C3
:100E9800BA881146184600F0BBFB0346FB801E4B80
:100EA8005A68BB881344FA88D2B21A70FB881B0AA6
:100EB80099B2194B5A68BB8801331344CAB21A70E5
:100EC800154B02221A70BB88DBB20233DAB2124B1E
:100ED8005A703A46002301210F480AF009FD0346DB
:100EE800002B06D10D4B01220021012017F0F8FC40
:100EF8000EE03B68002B0BD03B68094AA2FB03239A
:100F08009B090093074B01220021012017F0E8FC00
:100F180000BF0837BD4680BD00000020CCA00108F6
:100F2800D34D6210DCA0010880B582B000AF7860B4
:100F38000021022018F030F9034818F0DBFA00BF4E
:100F48000837BD4680BD00BFB802002080B586B016
:100F580004AF78607B68002B3ED07B681B78002B41
:100F68003AD01F4B00220021022017F0B9FC7B6801
:100F78009B687A68127B11467A6892F904201046B9
:100F88007A6892F914200392029001910093154B0C
:100F980000220021032017F0A3FC134B002200219C
:100FA800032017F09DFC7B689B78012B0ED17B6892
:100FB800DB78002B01D00D4B00E00D4B00930D4B5F
:100FC80000220021032017F08BFC05E00A4B0022C9
:100FD8000021032017F084FC00BF0837BD4680BD00
:100FE800FCA0010830A1010864A1010874A101084E
:100FF80078A1010880A1010894A1010880B582B0F8
:1010080000AF78607B68002B22D07B6893F90130B1
:10101800002B17D1104B00220021022017F060FC92
:101028007B689B78012B06D10C4B00220021022003
:1010380017F056FC0CE00A4B00220021022017F0A2
:101048004FFC05E0074B00220021022017F048FC66
:1010580000BF0837BD4680BDA4A10108BCA1010896
:10106800DCA10108FCA1010880B500AF0021012026
:1010780018F092F800BF80BD80B500AF124B002277
:101088001A60114B00225A600F4B00229A600E4BD7
:101098000022DA600C4B5B6843F001030A4A536094
:1010A800094B5B68002B06D1084B00220021002069
:1010B80017F016FCFEE7044B0022DA60024B03220D
:1010C8001A6000BF80BD00BFD002002054A20108F2
:1010D80080B400AF024B1846BD4680BC704700BFC5
:1010E800D002002080B485B000AF78604FF0B043E4
:1010F8001A6E4FF0B0417B6813430B664FF0B04354
:101108001A6E7B681340FB60FB6800BF1437BD464E
:1011180080BC704780B483B000AF78604FF0B043B4
:101128001A6E7B68DB434FF0B04113400B6600BF7B
:101138000C37BD4680BC704780B500AF234B244AAE
:101148001A60224B4FF000425A60204B00229A60EE
:101158001E4B0022DA601D4B00221A611B4B042231
:101168005A611A4B00221A76184B00225A76174BEE
:1011780000229A76154B0122DA61144B002283F87B
:101188002020124B00225A62104B00229A620F4B09
:10119800002283F82C200D4B4FF480521A630B4B1E
:1011A80007225A63094B07229A63084B002283F8E7
:1011B8003C20064B0022DA64044802F031F803466A
:1011C800002B01D000F020FC00BF80BD4812002099
:1011D8000024014080B582B000AF78607B681B684E
:1011E800054A934203D14FF40070FFF77BFF00BF1D
:1011F8000837BD4680BD00BF0024014080B582B0DD
:1012080000AF78607B681B68054A934203D14FF4AE
:101218000070FFF77FFF00BF0837BD4680BD00BFE5
:101228000024014080B400AF034B044A1A6000BF99
:10123800BD4680BC704700BF481200200024014012
:1012480080B586B002AF0023FB810023BB6000F0AD
:1012580071F80346FB80304800F0A0F8B8602F4BC7
:101268001A882F4B1B889A4226D02C4B1A882C4B55
:101278001B889A421CD0FB88BA6802FB03F39B08C0
:10128800284AA2FB03235B091A46254B1B88D31A5D
:10129800642202FB03F2214B1B881946204B1B8852
:1012A800CB1A92FBF3F39BB21E339BB21BB201E045
:1012B80047F6FF73FB811CE0FB88BA6802FB03F268
:1012C800194BA3FB0213D21A52081344DB0A4FF43A
:1012D8007A7202FB03F3A3F53923A3F50C63134ACF
:1012E80082FB03129212DB17D31A9BB21E339BB2F6
:1012F800FB81B7F90E3000930D4B0122002101202C
:1013080017F0EEFAB7F90E301B02FB81B7F90E3071
:1013180018461037BD4680BD001000B0C875FF1FC5
:10132800A875FF1F9F00EE0901011000AD8BDB6857
:10133800A4A2010880B582B000AF0023FB8000237F
:101348003B60134800F02AF838603B68002B02D154
:101358000023FB8016E00F4B1B884FF6FF72934269
:101368000BD00C4B1B881A4640F6E44303FB02F2F1
:101378003B68B2FBF3F3FB8004E0074A3B68B2FB2F
:10138800F3F3FB80FB8818460837BD4680BD00BFD5
:10139800002000B4AA75FF1FD8084C0080B586B09D
:1013A80000AF786000237B6107F1080300221A6010
:1013B8005A609A60FFF7C0FE1A4802F0F4FC034630
:1013C800002B01D000F020FB7B68BB600023FB6092
:1013D80000233B6107F108031946124802F072FA2C
:1013E8000346002B01D000F00FFB0E4802F056F91F
:1013F8000346002B01D000F007FB4FF0FF310948EE
:1014080002F0C4F9074802F08FF9064802F04EFAD4
:101418007861044802F0C6F87B6918461837BD465B
:1014280080BD00BF4812002080B485B000AF78604E
:101438004FF0B043DA6C4FF0B0417B681343CB6494
:101448004FF0B043DA6C7B681340FB60FB6800BF69
:101458001437BD4680BC704780B588B000AF0346DE
:10146800FB7107F10C0300221A605A609A60DA6077
:101478001A610220FFF7D8FF2023FB6001233B619C
:1014880000237B610223BB61FB790B4A52F82330AE
:1014980007F10C021146184603F026FAFB79064AB2
:1014A80052F8233020210022184603F04BFC002379
:1014B80018462037BD4680BD4400002080B582B064
:1014C80000AF0346FB71FB79064A52F8233020210E
:1014D8000122184603F036FC002318460837BD469B
:1014E80080BD00BF4400002080B582B000AF034635
:1014F800FB71FB79064A52F8233020210022184656
:1015080003F020FC002318460837BD4680BD00BF05
:101518004400002080B588B000AF03460A46FB713E
:101528001346BB7107F10C0300221A605A609A60D7
:10153800DA601A610220FFF777FF4FF40053FB606F
:1015480001237B610223BB61BB79002B0CD10023F3
:101558003B61FB791F4A52F8233007F10C02114610
:10156800184603F0C1F930E01B4B3B61FB79194A7F
:1015780052F8233007F10C021146184603F0B4F96B
:10158800FB79DB00154A1A44FB79154951F82330D9
:101598001946104603F095F9FB79DB000F4A9818B5
:1015A800FB79104A52F823301A46002103F070F9EB
:1015B8002920FB790C4A52F823300022194602F000
:1015C80046FD2923184602F05CFD00231846203703
:1015D800BD4680BD4800002000002110AC1200204C
:1015E80074A701084C0000205000002080B483B08C
:1015F80000AF0346FB7100BF0C37BD4680BC704787
:1016080080B500AF0020FFF7F1FF00BF80BD0000EC
:1016180080B485B000AF78600B467B800023FB81E7
:101628000023BB8111E0FB891B0A9AB2F9897B6808
:10163800581C78601B784B40DBB2094931F81330ED
:101648005340FB81BB890133BB81BA897B889A42AD
:10165800E9D3FB8918461437BD4680BC704700BFE4
:1016680078A7010880B485B000AF78604FF0B04328
:101678009A6C4FF0B0417B6813438B644FF0B043D2
:101688009A6C7B681340FB60FB6800BF1437BD464B
:1016980080BC704780B500AF0420FFF7E3FF01204E
:1016A800FFF7E0FF002202210F2002F0D0FC0F20FC
:1016B80002F0E7FC00BF80BD80B485B000AF786061
:1016C8004FF0B043DA6C4FF0B0417B681343CB6402
:1016D8004FF0B043DA6C7B681340FB60FB6800BFD7
:1016E8001437BD4680BC704780B485B000AF7860C1
:1016F8004FF0B0439A6D4FF0B0417B6813438B6550
:101708004FF0B0439A6D7B681340FB60FB6800BFE5
:101718001437BD4680BC704780B500AF1B4B1C4AD0
:101728001A601A4B1B4A5A60184B00229A60174BD2
:101738000122DA60154B00221A61144B00225A610B
:10174800124B00229A61114B0022DA610F4B0022E2
:101758001A620E4803F026FB0346002B01D000F066
:1017680053F90021094804F07BF80346002B01D007
:1017780000F04AF90021054804F0BCF80346002BA4
:1017880001D000F041F900BF80BD00BFB4120020B5
:10179800005800405D3E302080B596B000AF7860BC
:1017A80007F1440300221A605A609A60DA601A61ED
:1017B80007F10C0338220021184618F075FB7B68E6
:1017C8001B68214A93423BD18023FB604FF440239E
:1017D8007B6207F10C03184605F064FB0346002BF7
:1017E80001D000F011F90120FFF766FF0220FFF792
:1017F80063FF4FF400437B641223BB640123FB6443
:1018080000233B6504237B6507F1440319464FF029
:10181800904003F069F84FF400437B641223BB64E3
:101828000123FB6400233B6504237B6507F1440324
:101838001946064803F058F84FF48000FFF754FFA4
:1018480000BF5837BD4680BD00580040000400481E
:1018580080B500AFFFF760FF00BF80BD80B582B0E4
:1018680000AF0346FB71FB799BB25B0099B205237D
:101878000122064803F010FD0346002B01D1012385
:1018880000E0002318460837BD4680BDB41200208A
:1018980080B586B002AF03463960FB711346BB8042
:1018A8000023FB73FB7999B2BB884FF4FA6200926C
:1018B8003A68074803F006FB0346002B0CBF0123D8
:1018C8000023FB73FB7B18461037BD4680BD00BF65
:1018D800B412002080B586B002AF03463960FB71B0
:1018E8001346BB800023FB73FB7999B2BB884FF486
:1018F800FA6200923A68074803F0D8FB0346002BC7
:101908000CBF01230023FB73FB7B18461037BD4631
:1019180080BD00BFB412002080B483B000AF7860EF
:101928004FF0B043D3F8903023F018024FF0B04195
:101938007B681343C1F8903000BF0C37BD4680BCAC
:10194800704780B500AF01F095FA00F005F8FFF791
:101958005BF9FFF761F9FCE780B59AB000AF07F1D2
:10196800200348220021184618F09EFA07F10803C0
:1019780000221A605A609A60DA601A615A6100207F
:10198800FFF7CAFF1F4B1B6823F4C0631D4A43F4CB
:10199800007313601B4B1B6803F4C0637B607B6898
:1019A80024233B628123FB6201233B6400237B6485
:1019B800B023BB640023FB6407F12003184604F03E
:1019C80031FB0346002B01D000F01EF84F23BB600B
:1019D8000023FB6000233B6100237B610023BB6184
:1019E8000023FB6107F108030221184604F0B4FE46
:1019F8000346002B01D000F007F800BF6837BD464A
:101A080080BD00BF0004005880B400AFFEE780B47A
:101A180000AF4FF0B043D3F890304FF0B04243F4EA
:101A28000043C2F8903000BFBD4680BC704780B408
:101A380085B000AF78604FF0B0439A6D4FF0B04179
:101A48007B6813438B654FF0B0439A6D7B681340F6
:101A5800FB60FB6800BF1437BD4680BC70470000C0
:101A680080B58CB000AF3B1D2C220021184618F021
:101A78001BFA224B224A1A60204B1F229A601F4BE6
:101A880000221A611D4B00225A611C4B00229A61E8
:101A98001A4B4FF08042DA61184B00221A62174B3A
:101AA8004FF480725A62154805F016FB0346002B66
:101AB80001D0FFF7A9FF114805F0F0FD0346002B00
:101AC80001D0FFF7A1FF00233B620023BB60002386
:101AD800BB614FF00053FB614FF48073FB623B1D09
:101AE80001221946054805F071FB0346002B01D079
:101AF800FFF78AFF00BF3037BD4680BD00130020C6
:101B08000028004080B590B000AF786007F1080366
:101B180038220021184618F0C7F97B681B68164A56
:101B2800934225D14FF48033BB604FF48073FB633D
:101B380007F10803184605F0B5F90346002B01D054
:101B4800FFF762FFFFF763FF4FF48060FFF76FFF57
:101B580000220021022002F07AFA022002F091FA13
:101B6800002200212A2002F072FA2A2002F089FAC3
:101B780000BF4037BD4680BD0028004080B400AF9C
:101B8800034B0122C3F8882000BFBD4680BC7047C4
:101B98000004005880B400AF00BFBD4680BC704749
:101BA80080B400AF00BFBD4680BC704780B500AFB1
:101BB80001F092F9FFF7E2FF012003F079FF00BF7F
:101BC80080BD80B500AF01F095F901F033F800BF92
:101BD80080BD80B500AF01F07FF90121002003F03E
:101BE800E3FE00BF80BD80B500AF01F083F900BF00
:101BF80080BD80B400AF00BFBD4680BC704780B4D4
:101C080000AF00BFBD4680BC704780B400AFFEE7A0
:101C180080B400AFFEE780B400AFFEE780B400AF49
:101C2800FEE780B400AF00BFBD4680BC704780B4FB
:101C380000AF00BFBD4680BC704780B400AF00BF96
:101C4800BD4680BC704780B500AF01F033F900BFD6
:101C580080BD000080B500AF024805F05BFD00BF05
:101C680080BD00BF0013002080B500AF4FF40050C6
:101C780003F080F800BF80BD80B500AF024802F0D5
:101C880097FC00BF80BD00BF4413002080B500AFA3
:101C9800024806F059FB00BF80BD00BFA413002016
:101CA80080B500AF024805F0E5FB00BF80BD00BF6E
:101CB8000013002080B500AF024806F093F800BF7B
:101CC80080BD00BF3813002080B485B000AF7860B5
:101CD8004FF0B0435A6E4FF0B0417B6813434B66E8
:101CE8004FF0B0435A6E7B681340FB60FB6800BF3F
:101CF8001437BD4680BC704780B500AF064B08223C
:101D08001A60054805F0F2FD0346002B01D0FFF7E5
:101D18007BFE00BF80BD00BF3813002080B582B0B5
:101D280000AF78600120FFF7CFFF002200213220AA
:101D380002F08DF9322002F0A4F900BF0837BD4641
:101D480080BD80B483B000AF78604FF0B0439B682B
:101D580023F400424FF0B0417B6813438B6000BF0F
:101D68000C37BD4680BC704780B485B000AF786042
:101D78004FF0B043DA6C4FF0B0417B681343CB644B
:101D88004FF0B043DA6C7B681340FB60FB6800BF20
:101D98001437BD4680BC704780B483B000AF78600C
:101DA8004FF0B043DA6C7B68DB434FF0B04113402F
:101DB800CB6400BF0C37BD4680BC704780B400AF11
:101DC800024B1B681846BD4680BC70478075FF1FD4
:101DD80080B500AF0020FFF7B4FF17F045FB00F017
:101DE800ADF800F03AF916F05FFD0C4816F0FAFD70
:101DF800032016F005FEFFF715FAFFF729FD00F09E
:101E080033F916F0E3FF0121012017F01FF8012133
:101E1800012016F0EBFF00BF80BD00BF051F0008C2
:101E280080B500AF17F042F800BF80BD80B584B020
:101E380002AF0023FB71FFF77DFA0346BB80BB8826
:101E480040F6B832934202D9FE23FB7114E0BB88F6
:101E5800B3F5E16F02D20023FB710DE0BB88A3F557
:101E6800E1631A461346DB019B1A5B001A46094BCD
:101E7800A3FB0223DB09FB71FB790093064B0122CC
:101E88000021022016F02CFDFB7918460837BD46C4
:101E980080BD00BFB5814E1BB0A2010880B582B0DD
:101EA80000AF0023FB80FFF7CBF90346002B00DAD5
:101EB800FF331B121BB2FB80FB8818460837BD4650
:101EC80080BD90B583B000AF00237B60FFF776FF3D
:101ED80078607B68B3F1FF3F0BD101F019F8044635
:101EE80001F020F803465C4001F026F80346634001
:101EF8007B607B6818460C37BD4690BD80B586B0C0
:101F080002AF7860396007F10803184617F054FAF1
:101F1800BB68B7F90C200092074A1021786800F0D6
:101F280069F87868FEF724F903469AB23B681A8084
:101F380000BF1037BD4680BDBCA2010880B586B081
:101F480000AF3B1D00221A605A609A60DA601A617D
:101F58000120FFF709FF0220FFF706FF0420FFF723
:101F680003FF8020FFF700FF0323BB600023FB6013
:101F780049F6FF737B603B1D19464FF0904002F015
:101F8800B3FC4FF6FF737B603B1D19460E4802F009
:101F9800ABFC3B1D19460D4802F0A6FC3B1D19463B
:101FA8000B4802F0A1FC0120FFF7F6FE0220FFF724
:101FB800F3FE0420FFF7F0FE8020FFF7EDFE00BFE0
:101FC8001837BD4680BD00BF00040048000800481F
:101FD800001C004880B500AF0121022016F006FF62
:101FE80000BF80BD80B500AF0021022016F0FEFEC4
:101FF80000BF80BD0CB480B584B000AF7860396094
:1020080007F11C03FB603968FB68BA69786817F048
:10201800D1FD00BF1037BD46BDE8804002B0704713
:1020280080B483B000AF7860002318460C37BD46F3
:1020380080BC704780B500AF00F0CCFA0346184664
:1020480080BD80B582B000AF78607B68184600F02C
:102058002FFB00BF0837BD4680BD80B400AF00BF6E
:10206800BD4680BC7047000080B582B000AF002339
:10207800FB710823FB710DE016F0E0FB0346002B13
:1020880008D016F0E3FB0A4B00220021022016F0CC
:1020980027FC08E097F90730DAB2013AD2B2FA71B0
:1020A800002BE9D100BF00BF0837BD4680BD00BF87
:1020B800C8A2010880B584B000AF0023FB730023D9
:1020C800BB6000237B600323FB7394E016F0B6FB30
:1020D8000346002B4BD03A1D07F10803114618465A
:1020E80016F0C4FB4B4BB3F900301A464A4B01219A
:1020F80003F83210474BB3F90030474ADB0013446A
:1021080041F201025A80434BB3F90030BA684249A0
:10211800DB000B445A603F4BB3F900309BB20133EC
:102128009BB21AB23B4B1A803A4BB3F900301A46AD
:10213800394B012103F83210364BB3F90030364AD7
:10214800DB00134441F202025A80324BB3F90030EB
:102158007A683149DB000B445A602E4BB3F90030E2
:102168009BB201339BB21AB22A4B1A804DE0294B1D
:10217800B3F900301A46284B012103F83210254BD9
:10218800B3F90030244ADB00134441F201025A80BB
:10219800204BB3F90030204ADB0013441F4A5A6031
:1021A8001C4BB3F900309BB201339BB21AB2194BE6
:1021B8001A80184BB3F900301A46174B012103F85F
:1021C8003210144BB3F90030134ADB00134441F2C8
:1021D80002025A800F4BB3F900300F4ADB00134458
:1021E8000E4A5A600B4BB3F900309BB201339BB2D5
:1021F8001AB2084B1A8097F90F30DAB2013AD2B204
:10220800FA73002B7FF462AF00BF00BF1037BD46E2
:1022180080BD00BF5803002018030020B89F357701
:1022280080B483B000AF404BB3F90030002B71D1BC
:102238000023FB7168E0F979FA791346DB009B1AF1
:102248003A4A12F831103A4AD154FB79374ADB003E
:1022580013445988FA791346DB009B1A0133C9B233
:10226800334AD154FB79314ADB0013445B881B0A9B
:1022780099B2FA791346DB009B1A0233C9B22C4A89
:10228800D154FB79294ADB0013445968FA7913467B
:10229800DB009B1A0333C9B2254AD154FB79234A80
:1022A800DB0013445B68190AFA791346DB009B1AB2
:1022B8000433C9B21E4AD154FB791C4ADB001344CB
:1022C8005B68190CFA791346DB009B1A0533C9B20F
:1022D800174AD154FB79154ADB0013445B68190E81
:1022E800FA791346DB009B1A0633C9B2104AD15457
:1022F8000D4BB3F900309BB207339BB21AB20A4BAD
:102308001A80FB790133FB71FB790A4AB2F9002084
:10231800934290DB044BB3F900309BB218460C375C
:10232800BD4680BC704700BF5A0300201803002038
:10233800E00200205803002080B485B000AF786028
:102348000B467B80194BB3F900309BB21A46D2007A
:10235800D31A9AB2164BB3F900309BB2D31A9BB278
:10236800BB81134BB3F900301A467B889A4203DAD3
:102378000F4BB3F900307B800023FB810CE0FA8916
:10238800B7F90C301A44FB8979680B4409498A5C0F
:102398001A70FB890133FB81FA897B889A42EED354
:1023A80000BF00BF1437BD4680BC704758030020EB
:1023B8005A030020E002002080B485B000AF034635
:1023C800FB80264BB3F900301A46FB889A4203DAA1
:1023D800224BB3F90030FB80204BB3F900309AB29E
:1023E800FB88D31A9BB21AB21C4B1A801B4BB3F949
:1023F8000030002B2CDC0023FB8106E0FB89184A07
:102408000021D154FB890133FB81FB89372BF5D996
:102418000023BB8113E0BB89124A002102F8331064
:10242800BB89104ADB00134400225A80BB890D4A3D
:10243800DB00134400225A60BB890133BB81BB898E
:10244800094AB2F900209342E5DB074B00221A80C3
:1024580000BF1437BD4680BC704700BF5A03002038
:10246800E0020020180300205803002080B483B045
:1024780000AF78607B689B6818460C37BD4680BC07
:102488007047000080B582B000AF0023FB71144B89
:102498001B7883F00103DBB2002B1BD0114B4FF0EC
:1024A800FF321A63FFF7DCFA00F056F84FF4807138
:1024B8000C4804F089FF0B4B4FF0FF321A630948B0
:1024C80005F0BAF8002000F0A7F900F05FF8044B17
:1024D80001221A70FB7918460837BD4680BD00BF37
:1024E8005C0300200013002080B58EB000AF786038
:1024F800002387F8373007F108032C2200211846FB
:1025080017F0D2FC00F028F8114B1B687A681344C6
:102518007B6000237B627B68DB43FB600023FB61FD
:102528004FF000533B624FF480733B6307F108039D
:1025380001221946074804F049FE0346002B01D042
:10254800FFF762FA97F8373018463837BD4680BD2E
:10255800600300200013002080B582B000AF002384
:10256800FB71084B0122DA654FF48071064804F0CC
:102578002BFF054B4FF0FF321A63FB7918460837DB
:10258800BD4680BD002800400013002080B500AF84
:1025980000F062F90346034A1360024B1B681846B1
:1025A80080BD00BF6003002080B400AF024B1B68F1
:1025B8001846BD4680BC70476003002080B500AF58
:1025C80000F04AF90246024B1B68D31A184680BD30
:1025D8006003002080B500AF054B1B78002B03D0AB
:1025E80000F03AF9034600E00023184680BD00BF1A
:1025F8005C03002080B400AF03231846BD4680BCAE
:102608007047B0B582B000AF78607B681A464FF06B
:102618000003950D94024FF47A724FF000032046A0
:102628002946FEF777F902460B461346184608373F
:10263800BD46B0BDB0B483B000AF78607B681846C3
:102648004FF0000102460B464FF000044FF0000522
:102658005D0145EAD265540122462B46121A63EB06
:1026680001034FF000044FF000059D0045EA927504
:10267800940022462B46121841EB03034FF000004A
:102688004FF00001D90041EA5271D00002460B46D2
:10269800104619464FF000024FF00003820A42EA42
:1026A80081528B0A134618460C37BD46B0BC70479A
:1026B80080B584B000AF78607868FFF7A2FFF86053
:1026C80000F0CAF8B86000E000BF00F0C5F80246A4
:1026D800BB68D31AFA689A42F6D800BF00BF103711
:1026E800BD4680BD80B582B000AF786017F00AF8AB
:1026F80000BF0837BD4680BD80B584B000AF7860A4
:1027080000F09AF8F860FB680133184600F084F886
:1027180000BF1037BD4680BD2DE9B04388B000AF7B
:10272800786000F099F8F86100F086F8B861BB6944
:1027380018464FF000014FF000024FF0000303006D
:102748000022F96908464FF0000112EB000843EB3C
:102758000109C7E90489D7E904014FF000024FF0E5
:102768000003820A42EA81528B0A1346FB603B69E6
:102778001A464FF0000340F2FF304FF0000102EA22
:10278800000403EA0105C7E904453B691846FFF759
:1027980051FF03469AB27B681A80FB6818462037B7
:1027A800BD46BDE8B083000080B582B000AF786058
:1027B8007A680021034804F0D1FF00BF0837BD46FE
:1027C80080BD00BF0013002080B582B000AF7860E4
:1027D8007A680121034804F0C1FF00BF0837BD46ED
:1027E80080BD00BF0013002080B500AF0021034862
:1027F80004F0CCFF0346184680BD00BF001300203C
:1028080080B500AF0121034804F0C0FF0346184615
:1028180080BD00BF0013002080B582B000AF786093
:102828007A680221034804F099FF00BF0837BD46C3
:1028380080BD00BF0013002080B582B000AF022128
:10284800044804F0A3FF78607B6818460837BD4643
:1028580080BD00BF0013002080B500AF0348FFF71C
:1028680005FE0346DB43184680BD00BF0028004034
:1028780080B485B000AF78604FF0B043DA6C4FF0A9
:10288800B0417B681343CB644FF0B043DA6C7B688C
:102898001340FB60FB6800BF1437BD4680BC70471F
:1028A80080B485B000AF78604FF0B0431A6E4FF037
:1028B800B0417B6813430B664FF0B0431A6E7B68D8
:1028C8001340FB60FB6800BF1437BD4680BC7047EF
:1028D80080B483B000AF78604FF0B0431A6E7B6865
:1028E800DB434FF0B04113400B6600BF0C37BD46C9
:1028F80080BC704780B500AF224B234A1A60214B39
:102908004FF4E1325A601F4B00229A601D4B00229F
:10291800DA601C4B00221A611A4B0C225A61194BBF
:1029280000229A61174B0022DA61164B00221A62C4
:10293800144B00225A62134B00229A62114805F088
:1029480004FC0346002B01D0FFF75EF800210D4878
:1029580007F068F80346002B01D0FFF755F800216F
:10296800084807F09DF80346002B01D0FFF74CF804
:10297800044807F01CF80346002B01D0FFF744F881
:1029880000BF80BDA41300200038014080B596B078
:1029980000AF786007F1440300221A605A609A6019
:1029A800DA601A6107F10C0338220021184617F083
:1029B8007BFA7B681B682E4A934255D10123FB6042
:1029C8002C4B3B6107F10C03184604F06BFA0346E5
:1029D800002B01D0FFF718F84FF48040FFF760FF95
:1029E8000220FFF745FFC0237B640223BB6400235A
:1029F800FB6403233B6507237B6507F14403194602
:102A08001D4801F071FF1D4B1D4A1A601B4B122215
:102A18005A601A4B10229A60184B0022DA60174B42
:102A280080221A61154B00225A61144B00229A61C8
:102A3800124B0022DA61114B00221A620F4801F092
:102A48003DFB0346002B01D0FEF7DEFF7B680B4AF7
:102A58009A670A4A7B68936200220221242001F0C7
:102A6800F6FA242001F00DFB00BF5837BD4680BDA3
:102A7800003801400100030000040048441300200E
:102A88005800024080B582B000AF78607B681B6850
:102A98000B4A93420FD14FF48040FFF719FFC02132
:102AA800084802F081F87B689B6F184601F0AEFB7E
:102AB800242001F0F4FA00BF0837BD4680BD00BFEE
:102AC800003801400004004880B483B000AF78604B
:102AD8004FF0B0431A6C4FF0B0417B6813430B645E
:102AE80000BF0C37BD4680BC704780B483B000AFD0
:102AF80078604FF0B0431A6C7B68DB434FF0B0410D
:102B080013400B6400BF0C37BD4680BC7047000003
:102B180080B483B000AF7860064BD3F880200549B5
:102B28007B681343C1F8803000BF0C37BD4680BCBA
:102B3800704700BF0008005880B582B000AF7860C9
:102B4800074A7B681360FEF7A5FDFFF7D3FE4FF039
:102B58000060FFF7DDFF002318460837BD4680BD3B
:102B68006403002080B500AF4FF48040FFF7ACFF4E
:102B78004FF48040FFF7B9FF0448FFF783FF0F20A9
:102B880001F08DFA0023184680BD00BFA413002071
:102B980080B582B000AF78600B467B807B881A4690
:102BA8007968044805F050FB002318460837BD46ED
:102BB80080BD00BFA413002080B584B000AF78604A
:102BC800194A7B6813604FF40013BB6007F10803D0
:102BD80093E80600154806F06EFE00BF134B1B680D
:102BE800DB6903F48033B3F5803FF7D000BF0F4BA8
:102BF8001B68DB6903F48003B3F5800FF7D10B4B37
:102C08001B689A68094B1B6842F480029A6007485F
:102C180006F0ACFE01220649044805F0E6FA002356
:102C280018461037BD4680BD68030020A413002055
:102C38003414002080B500AF084805F086FA034632
:102C4800002B01D0FEF7E0FE054801F037FA0346F5
:102C5800002B01D0FEF7D8FE00BF80BDA4130020D2
:102C68004413002080B582B000AF7860034B1B6826
:102C78000020984700BF0837BD4680BD6403002088
:102C880080B582B000AF78600B4B1B68002B0AD070
:102C98007B68D3F88C30002B05D1074B1B680022CA
:102CA80001210648984701220449786805F09DFAF1
:102CB80000BF0837BD4680BD6803002034140020DB
:102CC8000D48854600F0D0F80C480D490D4A002300
:102CD80002E0D458C4500433C4188C42F9D30A4AC9
:102CE8000A4C002301E013600432A242FBD317F020
:102CF800B7F8FEF726FEFEE700800020000000205F
:102D0800A8010020F8AF0108A8010020D81400206D
:102D1800FEE780B485B000AF78604FF0B043DA6C5E
:102D28004FF0B0417B681343CB644FF0B043DA6C8B
:102D38007B681340FB60FB6800BF1437BD4680BC4E
:102D4800704780B586B000AF3B1D00221A605A60FC
:102D58009A60DA601A610120FFF7DBFF10237B60BD
:102D68000123BB600023FB6003233B613B1D194625
:102D78004FF0904001F0B8FD20237B603B1D1946C1
:102D88004FF0904001F0B0FD002220214FF090401C
:102D980001F0D8FF002210214FF0904001F0D2FF3F
:102DA800002318461837BD4680BD000080B582B0A4
:102DB80000AF0346FB71FB79032B32D801A252F80E
:102DC80023F000BFDD2D0008F72D00082B2E00088A
:102DD800112E0008002210214FF0904001F0B2FFA0
:102DE800002220214FF0904001F0ACFF1AE00122B0
:102DF80010214FF0904001F0A5FF002220214FF054
:102E0800904001F09FFF0DE0002210214FF090400C
:102E180001F098FF012220214FF0904001F092FF2D
:102E280000E000BF002318460837BD4680BD00BF3C
:102E380080B400AF02231846BD4680BC704780B4FA
:102E480000AF0A231846BD4680BC704780B400AF67
:102E580001231846BD4680BC704780B400AF0123EB
:102E68001846BD4680BC704780B400AF00BFBD4661
:102E780080BC704780B582B000AF0023FB7103208F
:102E880001F0DAF803F02CFE0346094A13600F201C
:102E9800FFF7C6F80346002B02D00123FB7101E0BF
:102EA800FEF7A7FEFB7918460837BD4680BD00BF70
:102EB8005400002080B400AF054B1B781A46054B20
:102EC8001B681344034A136000BFBD4680BC7047AB
:102ED8005C0000203814002080B400AF044B1B684D
:102EE800034A23F00203136000BFBD4680BC70474D
:102EF80010E000E080B400AF044B1B68034A43F0C5
:102F08000203136000BFBD4680BC704710E000E0BC
:102F180080B400AF024B1B681846BD4680BC7047A2
:102F28009075FF1F80B400AF024B1B681846BD4662
:102F380080BC70479475FF1F80B400AF024B1B68BC
:102F48001846BD4680BC70479875FF1F80B483B093
:102F580000AF786039607B681B6823F0E0723B68DB
:102F68001A437B681A6000BF0C37BD4680BC7047A7
:102F780080B483B000AF78607B681B6803F0E073AF
:102F880018460C37BD4680BC704780B485B000AF8A
:102F9800F860B9607A60FB685A69BB6803F004039B
:102FA800072101FA03F3DB431A40BB6803F004036B
:102FB800796801FA03F31A43FB685A6100BF1437B2
:102FC800BD4680BC704780B483B000AF78607B6832
:102FD800DB6803F44063002B01D1012300E00023E8
:102FE80018460C37BD4680BC704780B485B000AF2A
:102FF800F860B9607A60FB689A6ABB6803F01F03DF
:103008000F2101FA03F3DB431A407B689B0E03F0A0
:103018000F01BB6803F01F0301FA03F31A43FB68AF
:103028009A6200BF1437BD4680BC704780B483B035
:1030380000AF786039607B689A6A3B68C3F3110314
:103048001A437B689A6200BF0C37BD4680BC704744
:1030580080B483B000AF786039607B689A6A3B6857
:10306800C3F31103DB431A407B689A6200BF0C3735
:10307800BD4680BC704780B485B000AFF860B960C9
:103088007A60FB685A69BB681B02DB431A40BB685D
:1030980019027B680B4023F07C4323F0FF031A439B
:1030A800FB685A6100BF1437BD4680BC704780B4C6
:1030B80083B000AF78607B689B6823F0104323F0EF
:1030C800170343F080527B689A6000BF0C37BD46F7
:1030D80080BC704780B483B000AF78607B689B6821
:1030E80023F0104323F017037A68936000BF0C376E
:1030F800BD4680BC704780B483B000AF78607B6801
:103108009B6803F08053B3F1805F01D1012300E095
:10311800002318460C37BD4680BC704780B483B086
:1031280000AF78607B689B6823F0004323F01703A7
:1031380043F001027B689A6000BF0C37BD4680BC33
:10314800704780B483B000AF78607B689B6823F0D9
:10315800004323F0170343F002027B689A6000BF24
:103168000C37BD4680BC704780B483B000AF786030
:103178007B689B6803F00103012B01D1012300E068
:10318800002318460C37BD4680BC704780B483B016
:1031980000AF78607B689B6803F00203022B01D1C3
:1031A800012300E0002318460C37BD4680BC704759
:1031B80080B483B000AF78607B689B6823F00043DD
:1031C80023F0170343F004027B689A6000BF0C37B2
:1031D800BD4680BC704780B483B000AF78607B6820
:1031E8009B6823F0004323F0170343F010027B6829
:1031F8009A6000BF0C37BD4680BC704780B483B06E
:1032080000AF78607B689B6803F00403042B01D14E
:10321800012300E0002318460C37BD4680BC7047E8
:1032280080B588B000AF78600023FB770023BB61CE
:1032380000237B610023BB607B68002B01D1012345
:10324800A9E17B681B69002B7B689B6D002B09D16A
:103258007868FDF7BFFF7B680022DA657B6800228B
:1032680083F854207B681B681846FFF744FF034621
:10327800002B14D17B681B681846FFF718FF9F4B7B
:103288001B689B099E4AA2FB03239B095B00BB604A
:1032980002E0BB68013BBB60BB68002BF9D17B68CF
:1032A8001B681846FFF727FF0346002B0DD17B68E4
:1032B8009B6D43F010027B689A657B68DB6D43F079
:1032C80001027B68DA650123FB777B681B68184677
:1032D800FFF794FFF8607B689B6D03F01003002BE9
:1032E80040F05081FB68002B40F04C817B689B6D5F
:1032F80023F4817343F002027B689A657B681B683C
:103308001846FFF731FF0346002B4AD17B681B683C
:10331800DB6823F018017B689A687B681B680A439E
:10332800DA607B685B6803F040427B681B6C1A4379
:103338007B685B6C1A437B689B6C1A437B68DB6C0D
:1033480013437A6913437B617B6893F83C30012B04
:1033580003D17B6943F001037B617B681B681A69B1
:10336800684B13407A68126879690B4313617B686C
:103378005B68B3F1404F14D07B685B68B3F1804F52
:103388000FD07B685B68B3F1004F0AD05E4B1B68B7
:1033980023F470127B685B6803F470135A49134373
:1033A8000B607B681B7E9A037B685B7EDB031A439A
:1033B8007B689B7E5B0313437A68126B002A02D0FA
:1033C8004FF4805200E000221A437B68DB681A43FE
:1033D8007B681B69002B04DA7B681B6923F00043B8
:1033E80001E04FF400131A437B6893F82C305B001C
:1033F8001343BA691343BB617B6893F82030012BF0
:1034080014D17B689B7E002B04D1BB6943F48033C5
:10341800BB610BE07B689B6D43F020027B689A657B
:103428007B68DB6D43F001027B68DA657B685B6A69
:10343800002B09D07B685B6A03F4E0727B689B6AA7
:103448001343BA691343BB617B681B68DB6823F4C9
:10345800FE3323F4F3737A681268B9690B43D360B7
:103468007B681B681A69294B13407A681268796966
:103478000B4313617B6818687B685B6B1A460021F5
:10348800FFF783FD7B6818687B689B6B1A462049A9
:10349800FFF77BFD7B681B69002B08D17B681B68E5
:1034A8009A6A7B681B6862F00F029A6245E07B6843
:1034B8001B69B3F5001F40D100233B610CE07B681A
:1034C8001A6E3B699B0022FA03F303F00F030F2BDC
:1034D80006D03B6901333B613B69072BEFD900E01C
:1034E80000BF3B69012B15D17B681B689A6A7B6812
:1034F8001B6862F00F029A621FE000BF54000020B0
:10350800632D3E0502FCFF1F0827014002FCFFDF78
:1035180004FFFF037B681B689B6A7B68DB69013BD0
:103528009B0003F01C036FF00F0202FA03F17B68A3
:103538001A6E7B681B680A439A627B681B68DA68A4
:10354800174B1340BA699A420BD17B680022DA659F
:103558007B689B6D23F0030343F001027B689A6547
:1035680018E07B689B6D23F0120343F010027B6820
:103578009A657B68DB6D43F001027B68DA6501239D
:10358800FB7707E07B689B6D43F010027B689A65C8
:103598000123FB77FB7F18462037BD4680BD00BF5F
:1035A800E7FF3F8380B584B000AF78607B68002B6D
:1035B80001D101236AE07B689B6D43F002027B68BE
:1035C8009A65786800F0B6FA0346FB73FB7B002B1C
:1035D8000FD1786800F06AFB0346FB73FB7B002B76
:1035E80002D17B6801229A657B681B681846FFF741
:1035F80071FD7B681B685B687A68126823F46773DF
:1036080023F0030353607B681B6840F29F321A6003
:103618007B681B68D9687B681A681E4B0B40D360AF
:103628007B681B681A697B681B6822F040421A6134
:103638007B681B685A697B681B6822F007025A611D
:103648007B681B681A6A7B681B6802F0F0221A62A2
:103658007B681B689B6A7B681B6800229A620E4B1A
:103668001B680D4A23F0FE7313607868FDF7C6FDEA
:103678007B6800221A667B680022DA657B68002274
:103688009A657B68002283F85420FB7B1846103724
:10369800BD4680BD00023E830827014080B584B046
:1036A80000AF78607B681B681846FFF7A7FD0346E4
:1036B800002B32D17B6893F85430012B01D10223BF
:1036C8002EE07B68012283F85420786800F070FAB5
:1036D8000346FB73FB7B002B1AD17B689B6D23F49D
:1036E800706323F0010343F480727B689A657B68FA
:1036F8000022DA657B681B681C221A607B6800223E
:1037080083F854207B681B681846FFF751FD06E0D4
:103718007B68002283F8542001E00223FB73FB7BC3
:1037280018461037BD4680BD80B584B000AF7860BC
:103738007B6893F85430012B01D1022322E07B6887
:10374800012283F85420786800F0F4F90346FB73EB
:10375800FB7B002B11D1786800F0A8FA0346FB73B5
:10376800FB7B002B09D17B689B6D23F4807323F0CE
:10377800010343F001027B689A657B68002283F8A5
:103788005420FB7B18461037BD4680BD80B584B0F9
:1037980000AF786039607B685B69082B02D1082329
:1037A800FB6010E07B681B68DB6803F00103002BFB
:1037B80007D07B689B6D43F020027B689A650123E4
:1037C80070E00423FB60FEF735FCB8601AE03B6844
:1037D800B3F1FF3F16D0FEF72DFC0246BB68D31AA3
:1037E8003A689A4202D33B68002B0BD17B689B6DE9
:1037F80043F004027B689A657B68002283F85420B2
:1038080003234FE07B681B681A68FB681340002B92
:10381800DDD07B689B6D43F400727B689A657B689A
:103828001B681846FFF7CFFB0346002B31D07B6897
:103838009B7E002B2DD17B681B681B6803F0080357
:10384800082B26D17B681B681846FFF7D7FC034670
:10385800002B12D17B681B685A687B681B6822F0B2
:103868000C025A607B689B6D23F4807323F001037C
:1038780043F001027B689A650BE07B689B6D43F01F
:1038880020027B689A657B68DB6D43F001027B68E8
:10389800DA657B681B7E002B03D17B681B680C22D2
:1038A8001A60002318461037BD4680BD80B483B027
:1038B80000AF78607B681B681B6C18460C37BD46E8
:1038C80080BC704780B588B000AF7860396000234D
:1038D800FB770023BB607B681B69B3F1004F7B68F3
:1038E80093F85430012B01D1022310E17B680122A7
:1038F80083F854207B681B681846FFF77FFC034653
:10390800002B40F0F7803B685B68022B00F0B18029
:103918007B681B69B3F1004F04D07B681B697E4A42
:10392800934208D17B681A683B681B6819461046A1
:10393800FFF77CFB41E07B681A6E3B685B6803F02D
:103948001F030F2101FA03F3DB431A403B681B688E
:10395800C3F31103002B05D13B681B689B0E03F0D2
:103968001F0311E03B681B683B613B6993FAA3F3B3
:10397800FB60FB687B617B69002B01D1202303E09E
:103988007B69B3FA83F3DBB23968496801F01F0138
:103998008B401A437B681A663B685B689B085A1C15
:1039A8007B68DB699A4208D87B6818683B68596865
:1039B8003B681B681A46FFF718FB7B6818683B686A
:1039C80019683B689B681A46FFF755FB3B681B68FC
:1039D800002B80F297805148FFF7CAFAB8613B681C
:1039E8001B684F4A934220D1BB6903F40003002BA4
:1039F8001BD1BB6943F4000319464848FFF7A6FAF0
:103A0800484B1B689B09484AA2FB03239A091346A3
:103A18005B0013449B000133BB6002E0BB68013BC1
:103A2800BB60BB68002BF9D16CE03B681B683F4A60
:103A380093420CD1BB6903F08073002B07D1BB699B
:103A480043F0807319463548FFF780FA5AE03B681F
:103A58001B68374A934255D1BB6903F48003002B96
:103A680050D1BB6943F4800319462C48FFF76EFA1E
:103A780048E07B681B69B3F1004F04D07B681B6981
:103A8800254A934207D17B681A683B681B68194628
:103A98001046FFF7DDFA3B681B68002B32DA1F4837
:103AA800FFF766FAB8613B681B681D4A934207D165
:103AB800BB6923F4000319461848FFF747FA21E0C9
:103AC8003B681B68194A934207D1BB6923F080738E
:103AD80019461248FFF73AFA14E03B681B68144A83
:103AE80093420FD1BB6923F4800319460B48FFF7B3
:103AF8002DFA07E07B689B6D43F020027B689A658E
:103B08000123FB777B68002283F85420FB7F18464B
:103B18002037BD4680BD00BF040000800827014053
:103B2800001000B054000020632D3E05004000B88E
:103B3800002000B480B584B000AF78607B681B6853
:103B48001846FFF75BFB0346002B2CD07B681B68ED
:103B58001846FFF71BFB0346002B04D17B681B6844
:103B68001846FFF738FBFEF765FAF86014E0FEF731
:103B780061FA0246FB68D31A022B0DD97B689B6D4C
:103B880043F010027B689A657B68DB6D43F00102A5
:103B98007B68DA65012307E07B681B689B6803F094
:103BA8000403002BE3D1002318461037BD4680BD1F
:103BB80080B584B000AF78600023BB607B681B6869
:103BC8001846FFF7D1FA0346002B62D17B681B68C1
:103BD8009A68324B1340002B0DD07B689B6D43F0E5
:103BE80010027B689A657B68DB6D43F001027B6895
:103BF800DA6501234EE07B681B681846FFF78EFAEA
:103C08002748FFF7B5F9034603F40003002B0FD04C
:103C1800244B1B689B09244AA2FB03239B090133FD
:103C2800BB6002E0BB68013BBB60BB68002BF9D1FD
:103C38007B685B7E012B2CD0FEF7FCF9F86021E055
:103C48007B681B681846FFF78FFA0346002B04D1E0
:103C58007B681B681846FFF761FAFEF7EBF9024626
:103C6800FB68D31A022B0DD97B689B6D43F01002B9
:103C78007B689A657B68DB6D43F001027B68DA65D7
:103C8800012307E07B681B681B6803F00103012B15
:103C9800D6D1002318461037BD4680BD17000080D6
:103CA8000827014054000020632D3E0580B584B0EC
:103CB80000AF78607B681B681846FFF767FAF86002
:103CC8007B681B681846FFF74FFA0346002B40D065
:103CD800FB68002B3DD17B681B689B6803F00503DC
:103CE800012B0CD17B681B681846FFF72AFA7B6802
:103CF8001B6803221A60FEF79DF9B86022E07B6812
:103D08009B6D43F010027B689A657B68DB6D43F01E
:103D180001027B68DA6501231CE0FEF78BF9024695
:103D2800BB68D31A022B0DD97B689B6D43F0100238
:103D38007B689A657B68DB6D43F001027B68DA6516
:103D4800012307E07B681B689B6803F00103002BD5
:103D5800E3D1002318461037BD4680BD80B483B038
:103D680000AF78607B689B6803F00103012B01D1E9
:103D7800012300E0002318460C37BD4680BC70477D
:103D880080B483B000AF78607B689B6803F0004321
:103D9800B3F1004F01D1012300E0002318460C378E
:103DA800BD4680BC704780B586B000AF7860002300
:103DB800FB607B6893F85430012B01D1022368E043
:103DC8007B68012283F854207868FFF76FFF034669
:103DD800FB757B681B681846FFF7C0FF0346002B7E
:103DE8004CD17B689B6D23F4817343F002027B689E
:103DF8009A657B681B68DB6803F003033B617B689B
:103E08001B68DA687B681B6822F00302DA607B684B
:103E18001B689A687B681B6842F000429A6014E04D
:103E2800FB680133FB60FB68B3F52E3F0DD37B685D
:103E38009B6D23F0120343F010027B689A657B6840
:103E4800002283F85420012323E07B681B6818466E
:103E5800FFF796FF0346002BE2D17B681B68D96801
:103E68007B681B683A690A43DA607B689B6D23F0BC
:103E7800030343F001027B689A6505E07B689B6D4C
:103E880043F010027B689A657B68002283F854200F
:103E9800FB7D18461837BD4680BD000080B485B04C
:103EA80000AF78607B6803F00703FB600C4BDB68AE
:103EB800BB60BA684FF6FF031340BB60FB681A0289
:103EC800BB68134343F0BF6343F40033BB60044A49
:103ED800BB68D36000BF1437BD4680BC704700BFC5
:103EE80000ED00E080B400AF044BDB681B0A03F070
:103EF80007031846BD4680BC704700BF00ED00E0D0
:103F080080B483B000AF0346FB7197F90730002BEC
:103F18000BDBFB7903F01F02064997F907305B09B1
:103F2800012000FA02F241F8232000BF0C37BD46F9
:103F380080BC704700E100E080B483B000AF034666
:103F4800FB7197F90730002B12DBFB7903F01F0296
:103F58000A4997F907305B09012000FA02F2203379
:103F680041F82320BFF34F8F00BFBFF36F8F00BF0F
:103F780000BF0C37BD4680BC704700BF00E100E0C1
:103F880080B483B000AF03463960FB7197F90730FE
:103F9800002B0ADB3B68DAB20C4997F907301201AB
:103FA800D2B20B4483F800230AE03B68DAB208492E
:103FB800FB7903F00F03043B1201D2B20B441A76CB
:103FC80000BF0C37BD4680BC704700BF00E100E071
:103FD80000ED00E080B489B000AFF860B9607A60A5
:103FE800FB6803F00703FB61FB69C3F10703042BBC
:103FF80028BF0423BB61FB690433062B02D9FB6984
:10400800033B00E000237B614FF0FF32BB6902FAFB
:1040180003F3DA43BB681A407B699A404FF0FF31DB
:104028007B6901FA03F3D9437B680B4013431846B5
:104038002437BD4680BC704780B582B000AF786039
:104048007868FFF72BFF00BF0837BD4680BD80B5F5
:1040580086B000AF0346B9607A60FB73FFF742FF92
:1040680078617A68B9687869FFF7B4FF024697F90A
:104078000F3011461846FFF783FF00BF1837BD46BB
:1040880080BD80B582B000AF0346FB7197F9073059
:104098001846FFF735FF00BF0837BD4680BD80B51D
:1040A80082B000AF0346FB7197F907301846FFF757
:1040B80043FF00BF0837BD4680BD000080B582B011
:1040C80000AF78607B68002B01D101238EE07B680C
:1040D8001B681A46474B9A420FD87B681B681A46DA
:1040E800454B1344454AA2FB03231B099A007B68EE
:1040F8005A647B68424A1A640EE07B681B681A4659
:10410800404B13443D4AA2FB03231B099A007B68DA
:104118005A647B683C4A1A647B68022283F825202B
:104128007B681B681B687A68126823F4FF4323F0D6
:10413800700313607B681B6819687B689A687B68E2
:10414800DB681A437B681B691A437B685B691A43FF
:104158007B689B691A437B68DB691A437B681B6A27
:104168001A437B681B680A431A60786800F024FBCE
:104178007B689B68B3F5804F02D17B6800225A6048
:104188007B685A687B689B6C02F07F021A607B68C8
:10419800DB6C7A68126D5A607B685B68002B10D004
:1041A8007B685B68042B0CD8786800F04DFB7B6853
:1041B8005B6D00221A607B689B6D7A68D26D5A60CD
:1041C80008E07B6800225A657B6800229A657B6854
:1041D8000022DA657B680022DA637B68012283F8B3
:1041E80025207B68002283F82420002318460837FE
:1041F800BD4680BD07040240F8FFFDBFCDCCCCCC46
:1042080000000240F8FBFDBF0004024080B582B008
:1042180000AF78607B68002B01D101237BE07B68CD
:104228001B681A687B681B6822F001021A607B68A9
:104238001B681A463A4B9A420FD87B681B681A4685
:10424800384B1344384AA2FB03231B099A007B68A6
:104258005A647B68354A1A640EE07B681B681A4604
:10426800334B1344304AA2FB03231B099A007B6893
:104278005A647B682F4A1A647B681B6800221A609C
:104288007B685B6C03F01C027B681B6C012101FAE4
:1042980002F25A60786800F08FFA7B689B6C002203
:1042A8001A607B68DB6C7A68126D5A607B685B68A1
:1042B800002B0FD07B685B68042B0BD8786800F064
:1042C800C3FA7B685B6D00221A607B689B6D7A6815
:1042D800D26D5A607B6800225A657B6800229A6515
:1042E8007B680022DA657B680022DA627B6800223C
:1042F8001A637B6800225A637B6800229A637B6892
:104308000022DA637B68002283F825207B6800227C
:1043180083F82420002318460837BD4680BD00BF17
:1043280007040240F8FFFDBFCDCCCCCC0000024012
:10433800F8FBFDBF0004024080B586B000AFF8600E
:10434800B9607A603B600023FB75FB6893F8243002
:10435800012B01D1022369E0FB68012283F82420A4
:10436800FB6893F82530DBB2012B55D1FB6802229C
:1043780083F82520FB680022DA63FB681B681A684B
:10438800FB681B6822F001021A603B687A68B9680A
:10439800F86800F0D3F9FB681B6B002B08D0FB68AA
:1043A8001B681A68FB681B6842F00E021A600FE06F
:1043B800FB681B681A68FB681B6822F004021A6015
:1043C800FB681B681A68FB681B6842F00A021A60DF
:1043D800FB689B6C1B6803F48033002B07D0FB68D9
:1043E8009B6C1A68FB689B6C42F480721A60FB68CD
:1043F8005B6D002B07D0FB685B6D1A68FB685B6D13
:1044080042F480721A60FB681B681A68FB681B68B4
:1044180042F001021A6008E0FB688022DA63FB6858
:10442800002283F824200123FB75FB7D18461837EA
:10443800BD4680BD80B483B000AF78607B68002B38
:1044480001D101234FE07B6893F82530DBB2022BC2
:1044580008D07B680422DA637B68002283F8242072
:10446800012340E07B681B681A687B681B6822F0A0
:104478000E021A607B689B6C1A687B689B6C22F43E
:1044880080721A607B681B681A687B681B6822F058
:1044980001021A607B685B6C03F01C027B681B6C72
:1044A800012101FA02F25A607B68DB6C7A68126DAE
:1044B8005A607B685B6D002B0CD07B685B6D1A685B
:1044C8007B685B6D22F480721A607B689B6D7A68EA
:1044D800D26D5A607B68012283F825207B68002210
:1044E80083F82420002318460C37BD4680BC70474B
:1044F80080B584B000AF78600023FB737B6893F8C5
:104508002530DBB2022B05D07B680422DA63012355
:10451800FB7347E07B681B681A687B681B6822F09E
:104528000E021A607B681B681A687B681B6822F099
:1045380001021A607B689B6C1A687B689B6C22F48A
:1045480080721A607B685B6C03F01C027B681B6CD2
:10455800012101FA02F25A607B68DB6C7A68126DFD
:104568005A607B685B6D002B0CD07B685B6D1A68AA
:104578007B685B6D22F480721A607B689B6D7A6839
:10458800D26D5A607B68012283F825207B6800225F
:1045980083F824207B689B6B002B03D07B689B6B84
:1045A80078689847FB7B18461037BD4680BD0000E9
:1045B80080B584B000AF78607B681B6C1B68FB60BB
:1045C8007B681B681B68BB607B685B6C03F01C0323
:1045D80004229A40FB681340002B27D0BB6803F0E5
:1045E8000403002B22D07B681B681B6803F02003A0
:1045F800002B07D17B681B681A687B681B6822F050
:1046080004021A607B685B6C03F01C027B681B6CFD
:10461800042101FA02F25A607B681B6B002B00F040
:1046280081807B681B6B786898477BE07B685B6C54
:1046380003F01C0302229A40FB681340002B3DD074
:10464800BB6803F00203002B38D07B681B681B682B
:1046580003F02003002B0BD17B681B681A687B686A
:104668001B6822F00A021A607B68012283F8252061
:104678007B681B681A462E4B9A4209D97B685B6C8B
:1046880003F01C032B4A022101FA03F3536008E0EC
:104698007B685B6C03F01C03274A022101FA03F3D1
:1046A80053607B68002283F824207B68DB6A002B38
:1046B80038D07B68DB6A7868984733E07B685B6C46
:1046C80003F01C0308229A40FB681340002B2AD0F1
:1046D800BB6803F00803002B25D07B681B681A68A9
:1046E8007B681B6822F00E021A607B685B6C03F023
:1046F8001C027B681B6C012101FA02F25A607B687C
:104708000122DA637B68012283F825207B68002276
:1047180083F824207B685B6B002B04D07B685B6B81
:104728007868984700BF00BF1037BD4680BD00BFFE
:1047380080000240000402400000024080B485B0BE
:1047480000AFF860B9607A603B60FB68DB6CFA68C0
:10475800126D5A60FB685B6D002B04D0FB689B6D83
:10476800FA68D26D5A60FB685B6C03F01C02FB6848
:104778001B6C012101FA02F25A60FB681B683A6857
:104788005A60FB689B68102B08D1FB681B687A6825
:104798009A60FB681B68BA68DA6007E0FB681B6808
:1047A800BA689A60FB681B687A68DA6000BF1437D9
:1047B800BD4680BC7047000080B485B000AF78600B
:1047C8007B681B681A461C4B9A4213D87B685B6C43
:1047D8009B089B0003F1804303F502337A689364D6
:1047E8007B681B68DBB2083B144AA2FB03231B0946
:1047F800FB6011E07B685B6C9B089A00104B1344CC
:104808007A6893647B681B68DBB2083B0B4AA2FB9F
:1048180003231B090733FB607B680A4ADA64FB68D9
:1048280003F01F0301229A407B681A6500BF143702
:10483800BD4680BC704700BF07040240CDCCCCCC3D
:104848001C0802408008024080B485B000AF786040
:104858007B685B6803F07F03FB60FA680A4B1344CC
:104868009B001A467B685A657B68084A9A65FB680C
:10487800013B03F0030301229A407B68DA6500BF1D
:104888001437BD4680BC70473F8200104009024083
:1048980080B487B000AFF8600B467A60FB720023E3
:1048A800FB75FB7A002B03D1FB687A685A6002E03B
:1048B8000123FB7500BFFB7D18461C37BD4680BC35
:1048C800704780B483B000AF786039607B68002B94
:1048D80001D1012303E07B683A681A600023184677
:1048E8000C37BD4680BC704780B487B000AF786095
:1048F800396000237B6140E13B681A6801217B69CC
:1049080001FA03F31340FB60FB68002B00F03281CF
:104918003B685B68012B0BD03B685B68022B07D0B8
:104928003B685B68112B03D03B685B68122B30D166
:104938007B689B683B617B695B00032202FA03F397
:10494800DB433A6913403B613B68DA687B695B008B
:1049580002FA03F33A6913433B617B683A699A6048
:104968007B685B683B6101227B6902FA03F3DB43E6
:104978003A6913403B613B685B681B0903F001021D
:104988007B6902FA03F33A6913433B617B683A692E
:104998005A607B68DB683B617B695B00032202FA33
:1049A80003F3DB433A6913403B613B689A687B69D0
:1049B8005B0002FA03F33A6913433B617B683A6987
:1049C800DA603B685B68022B03D03B685B68122B9C
:1049D80023D17B69DA087B68083253F822303B61BF
:1049E8007B6903F007039B000F2202FA03F3DB4302
:1049F8003A6913403B613B681A697B6903F0070316
:104A08009B0002FA03F33A6913433B617B69DA08B6
:104A18007B680832396943F822107B681B683B6160
:104A28007B695B00032202FA03F3DB433A69134014
:104A38003B613B685B6803F003027B695B0002FA39
:104A480003F33A6913433B617B683A691A603B6830
:104A58005B6803F08053002B00F08C804E4A7B6922
:104A68009B08023352F823303B617B6903F0030350
:104A78009B00072202FA03F3DB433A6913403B61C8
:104A88007B68B3F1904F0DD07B68444A934207D0BE
:104A98007B68434A934201D1022304E0072302E0E2
:104AA800012300E000237A6902F003029200934098
:104AB8003A6913433B6138497B699B0802333A6979
:104AC80041F82320374BD3F880303B61FB68DB4348
:104AD8003A6913403B613B685B6803F48033002B01
:104AE80003D03A69FB6813433B612E4A3B69C2F81D
:104AF80080302C4BD3F884303B61FB68DB433A6948
:104B080013403B613B685B6803F40033002B03D020
:104B18003A69FB6813433B61224A3B69C2F8843017
:104B2800204B1B683B61FB68DB433A6913403B61E0
:104B38003B685B6803F48013002B03D03A69FB6879
:104B480013433B61174A3B691360164B5B683B6133
:104B5800FB68DB433A6913403B613B685B6803F4DD
:104B68000013002B03D03A69FB6813433B610D4ADD
:104B78003B6953607B6901337B613B681A687B69D9
:104B880022FA03F3002B7FF4B7AE00BF00BF1C3737
:104B9800BD4680BC704700BF0000014000040048CB
:104BA800000800480008005880B487B000AF78605B
:104BB800396000237B61AFE001227B6902FA03F3CD
:104BC8003A6813403B613B69002B00F0A280594AC8
:104BD8007B699B08023352F82330FB607B6903F042
:104BE80003039B00072202FA03F3FA681340FB60F1
:104BF8007B68B3F1904F0DD07B684F4A934207D042
:104C08007B684E4A934201D1022304E0072302E065
:104C1800012300E000237A6902F003029200934026
:104C2800FA689A4236D1464BD3F880203B69DB4379
:104C380043491340C1F88030414BD3F884203B6985
:104C4800DB433F491340C1F884303D4B1A683B6948
:104C5800DB433B4913400B60394B5A683B69DB43E4
:104C6800374913404B607B6903F003039B0007221D
:104C780002FA03F3FB602F4A7B699B08023352F860
:104C88002310FB68DA432B487B699B080A400233F0
:104C980040F823207B681A687B695B00032101FACE
:104CA80003F31A437B681A607B69DA087B68083269
:104CB80053F822107B6903F007039B000F2202FAC6
:104CC80003F3DB437A69D20819407B68083243F85A
:104CD80022107B689A687B695B00032101FA03F361
:104CE800DB431A407B689A607B685A6801217B69BC
:104CF80001FA03F3DB431A407B685A607B68DA6881
:104D08007B695B00032101FA03F3DB431A407B68EC
:104D1800DA607B6901337B613A687B6922FA03F3C5
:104D2800002B7FF449AF00BF00BF1C37BD4680BCD5
:104D3800704700BF00000140000400480008004818
:104D48000008005880B483B000AF78600B467B80C1
:104D580013467B707B78002B03D07A887B689A6136
:104D680002E07A887B689A6200BF0C37BD4680BC37
:104D78007047000080B582B000AF0346FB80084B47
:104D8800DA68FB881340002B06D0054AFB88D360FD
:104D9800FB881846FBF7B8FF00BF0837BD4680BD43
:104DA8000008005880B582B000AF78607B68002B9F
:104DB80001D1012381E07B6893F84130DBB2002BFD
:104DC80006D17B68002283F840207868FCF7E4FC71
:104DD8007B68242283F841207B681B681A687B68FB
:104DE8001B6822F001021A607B685A687B681B689E
:104DF80022F070621A617B681B689A687B681B687E
:104E080022F400429A607B68DB68012B07D17B683B
:104E18009A687B681B6842F400429A6006E07B68E7
:104E28009A687B681B6842F404429A607B68DB6876
:104E3800022B04D17B681B684FF400625A607B68C0
:104E48001B685B687A68126843F0007343F4004398
:104E580053607B681B68DA687B681B6822F4004231
:104E6800DA607B681A697B685B6942EA03017B68E0
:104E78009B691A027B681B680A43DA607B68D969F8
:104E88007B681A6A7B681B680A431A607B681B6820
:104E98001A687B681B6842F001021A607B6800226E
:104EA8005A647B68202283F841207B6800221A63B9
:104EB8007B68002283F84220002318460837BD4645
:104EC80080BD000080B588B002AFF8607A601A46ED
:104ED8000B467B8113463B81FB6893F84130DBB27C
:104EE800202B40F0DA80FB6893F84030012B01D189
:104EF8000223D3E0FB68012283F84020FDF79AF8EB
:104F080078617B690093192301224FF40041F86806
:104F180000F0ECFA0346002B01D00123BEE0FB6849
:104F2800212283F84120FB68102283F84220FB6885
:104F380000225A64FB687A685A62FB683A895A8583
:104F4800FB6800225A63FB685B8D9BB2FF2B0ED96E
:104F5800FB68FF221A85FB681B8DDAB27989514BF1
:104F680000934FF08073F86800F04EFC6CE0FB682B
:104F78005B8D9AB2FB681A85FB681B8DDAB279895A
:104F8800484B00934FF00073F86800F03DFC5BE07D
:104F98007A69396AF86800F0E9FA0346002B01D00B
:104FA80001237BE0FB685B6A1A78FB681B689A62DE
:104FB800FB685B6A5A1CFB685A62FB685B8D9BB294
:104FC800013B9AB2FB685A85FB681B8D013B9AB27C
:104FD800FB681A85FB685B8D9BB2002B34D0FB689D
:104FE8001B8D002B30D17B6900933B6A0022802106
:104FF800F86800F07BFA0346002B01D001234DE04E
:10500800FB685B8D9BB2FF2B0ED9FB68FF221A85CC
:10501800FB681B8DDAB27989002300934FF0807307
:10502800F86800F0F1FB0FE0FB685B8D9AB2FB6853
:105038001A85FB681B8DDAB27989002300934FF03B
:105048000073F86800F0E0FBFB685B8D9BB2002BF7
:105058009ED17A69396AF86800F0C8FA0346002BCD
:1050680001D001231AE0FB681B682022DA61FB6883
:105078001B685968FB681A680B4B0B405360FB6848
:10508800202283F84120FB68002283F84220FB6835
:10509800002283F84020002300E002231846183736
:1050A800BD4680BD0020008000E800FE80B588B0C5
:1050B80002AFF8607A601A460B467B8113463B8143
:1050C800FB6893F84130DBB2202B40F0DB80FB68B3
:1050D80093F84030012B01D10223D4E0FB68012270
:1050E80083F84020FCF7A6FF78617B6900931923B9
:1050F80001224FF40041F86800F0F8F90346002B4C
:1051080001D00123BFE0FB68222283F84120FB681D
:10511800102283F84220FB6800225A64FB687A68F0
:105128005A62FB683A895A85FB6800225A63FB6811
:105138005B8D9BB2FF2B0ED9FB68FF221A85FB689B
:105148001B8DDAB27989524B00934FF08073F8685F
:1051580000F05AFB6DE0FB685B8D9AB2FB681A851C
:10516800FB681B8DDAB27989494B00934FF00073C5
:10517800F86800F049FB5CE07A69396AF86800F081
:1051880071FA0346002B01D001237CE0FB681B6801
:105198005A6AFB685B6AD2B21A70FB685B6A5A1C6F
:1051A800FB685A62FB681B8D013B9AB2FB681A8543
:1051B800FB685B8D9BB2013B9AB2FB685A85FB6822
:1051C8005B8D9BB2002B34D0FB681B8D002B30D13C
:1051D8007B6900933B6A00228021F86800F086F919
:1051E8000346002B01D001234DE0FB685B8D9BB289
:1051F800FF2B0ED9FB68FF221A85FB681B8DDAB2DC
:105208007989002300934FF08073F86800F0FCFA66
:105218000FE0FB685B8D9AB2FB681A85FB681B8DF3
:10522800DAB27989002300934FF00073F86800F030
:10523800EBFAFB685B8D9BB2002B9DD17A69396ACA
:10524800F86800F0D3F90346002B01D001231AE0D7
:10525800FB681B682022DA61FB681B685968FB68D9
:105268001A680C4B0B405360FB68202283F84120DE
:10527800FB68002283F84220FB68002283F8402064
:10528800002300E0022318461837BD4680BD00BF42
:105298000024008000E800FE80B58AB002AFF86004
:1052A8007A603B600B467B8100237B61FB6893F847
:1052B8004130DBB2202B40F0F180FB681B689B6912
:1052C80003F40043B3F5004F01D10223E7E0FB6884
:1052D80093F84030012B01D10223E0E0FB68012262
:1052E80083F84020FB68242283F84120FB680022D1
:1052F8005A64FB68DB68012B07D17B89C3F3090378
:1053080043F0007343F4005304E07B89C3F30903BB
:1053180043F42053FA6812685360FCF78BFEB861B7
:10532800FB681B689B6903F02003202B0CBF01233B
:105338000023DBB2FB77FB681B689B6903F0100353
:10534800102B0CBF01230023DBB2BB7734E03B6892
:10535800B3F1FF3F1AD0FCF76DFE0246BB69D31AC2
:105368003A689A4202D33B68002B0FD1FB6820228F
:1053780083F84120FB685B6C43F02002FB685A64A9
:10538800FB68002283F84020012388E0FB681B6843
:105398009B6903F02003202B0CBF01230023DBB201
:1053A800FB77FB681B689B6903F01003102B0CBF8D
:1053B80001230023DBB2BB77FB7F002B02D1BB7F2D
:1053C800002BC4D0FB681B689B6903F01003102BEB
:1053D8001AD0BB6900933B6800222021F86800F0CE
:1053E80085F80346002B01D0012358E0FB681B68B1
:1053F8002022DA61FB68202283F84120FB68002222
:1054080083F8402000234AE0BB6900933B680022F0
:105418002021F86800F06AF80346002B01D0012328
:105428003DE0FB681B681022DA61FB681B682022DC
:10543800DA617B697A689A4218D1FB681B685A68F6
:10544800FB681B6842F480425A60BB6900933B6862
:1054580000222021F86800F049F80346002B01D00B
:1054680001231CE0FB681B682022DA617B69013399
:105478007B617B697A689A423FF63BAFFB682022E2
:1054880083F84120FB685B6C43F02002FB685A6498
:10549800FB68002283F84020012300E0022318461D
:1054A8002037BD4680BD80B483B000AF78607B688C
:1054B8001B689B6903F00203022B03D17B681B68FE
:1054C80000229A627B681B689B6903F00103012B29
:1054D80007D07B681B689A697B681B6842F00102E9
:1054E8009A6100BF0C37BD4680BC704780B584B058
:1054F80000AFF860B9603B601346FB7122E03B687F
:10550800B3F1FF3F1ED0FCF795FD0246BB69D31AE5
:105518003A689A4202D33B68002B13D1FB685B6C54
:1055280043F02002FB685A64FB68202283F841207C
:10553800FB68002283F84220FB68002283F84020A1
:1055480001230FE0FB681B689A69BB681340BA68BF
:105558009A420CBF01230023DBB21A46FB799A4218
:10556800CDD0002318461037BD4680BD80B584B025
:1055780000AFF860B9607A602CE07A68B968F868BA
:1055880000F0DCF80346002B01D001232AE0BB68B9
:10559800B3F1FF3F1ED0FCF74DFD02467B68D31ADE
:1055A800BA689A4202D3BB68002B13D1FB685B6CC4
:1055B80043F02002FB685A64FB68202283F84120EC
:1055C800FB68002283F84220FB68002283F8402011
:1055D800012307E0FB681B689B6903F00203022BA9
:1055E800CBD1002318461037BD4680BD80B584B0A6
:1055F80000AFF860B9607A6028E07A68B968F8683E
:1056080000F09CF80346002B01D0012326E0FCF7AC
:1056180011FD02467B68D31ABA689A4202D3BB6866
:10562800002B13D1FB685B6C43F02002FB685A64C3
:10563800FB68202283F84120FB68002283F842207F
:10564800FB68002283F84020012307E0FB681B6801
:105658009B6903F02003202BCFD100231846103775
:10566800BD4680BD80B584B000AFF860B9607A608F
:1056780055E07A68B968F86800F060F80346002BCE
:1056880001D0012353E0FB681B689B6903F02003EA
:10569800202B29D1FB681B689B6903F00403042BAA
:1056A80005D1FB681B8D002B01D000233FE0FB6870
:1056B8001B682022DA61FB681B685968FB681A6856
:1056C8001D4B0B405360FB6800225A64FB68202284
:1056D80083F84120FB68002283F84220FB680022FF
:1056E80083F84020012322E0FCF7A4FC02467B68F3
:1056F800D31ABA689A4202D3BB68002B0FD1FB6851
:105708005B6C43F02002FB685A64FB68202283F834
:105718004120FB68002283F84020012307E0FB6852
:105728001B689B6903F00403042BA2D100231846CD
:105738001037BD4680BD00BF00E800FE80B584B0CC
:1057480000AFF860B9607A60FB681B689B6903F07A
:105758001003102B51D122E0BB68B3F1FF3F1ED0DC
:10576800FCF768FC02467B68D31ABA689A4202D3EF
:10577800BB68002B13D1FB685B6C43F02002FB680D
:105788005A64FB68202283F84120FB68002283F8D2
:105798004220FB68002283F8402001232EE0FB68AA
:1057A8001B689B6903F02003202BD5D1FB681B687D
:1057B8001022DA61FB681B682022DA61F868FFF7BB
:1057C80072FEFB681B685968FB681A680D4B0B4032
:1057D8005360FB685B6C43F00402FB685A64FB6827
:1057E800202283F84120FB68002283F84220FB68CE
:1057F800002283F84020012300E0002318461037D8
:10580800BD4680BD00E800FE80B485B000AFF860FA
:105818007B600B467B8113467B72FB681B685A686A
:10582800BB695B0D03F480610C4B0B43DB4302EA5D
:1058380003017B89C3F309027B7A1B0403F47F030A
:105848001A437B681A43BB691A43FB681B680A43FF
:105858005A6000BF1437BD4680BC7047FF63FF0322
:1058680080B483B000AF786039607B6893F84130CA
:10587800DBB2202B38D17B6893F84030012B01D163
:10588800022332E07B68012283F840207B682422CF
:1058980083F841207B681B681A687B681B6822F0C4
:1058A80001021A607B681B681A687B681B6822F40F
:1058B80080521A607B681B6819687B681B683A68A5
:1058C8000A431A607B681B681A687B681B6842F089
:1058D80001021A607B68202283F841207B6800223D
:1058E80083F84020002300E0022318460C37BD4609
:1058F80080BC704780B485B000AF786039607B6841
:1059080093F84130DBB2202B39D17B6893F84030D3
:10591800012B01D1022333E07B68012283F8402068
:105928007B68242283F841207B681B681A687B689F
:105938001B6822F001021A607B681B681B68FB6009
:10594800FB6823F47063FB603B681B02FA6813432F
:10595800FB607B681B68FA681A607B681B681A68BA
:105968007B681B6842F001021A607B68202283F87A
:1059780041207B68002283F84020002300E00223B6
:1059880018461437BD4680BC7047000080B400AF8D
:10599800044B1B68034A43F48073136000BFBD4681
:1059A80080BC70470004005880B582B000AF7860B2
:1059B8000B46FB707B68002B0CD1134B5B6903F41F
:1059C8000073B3F5007F0DD100F03CF80346002BBF
:1059D80008D015E00C4B5B6903F40073002B01D170
:1059E80000F022F8094B1B69084A23F004031361ED
:1059F800FB78012B01D130BF02E040BF20BF20BFA0
:105A08000837BD4680BD00BF0004005800ED00E027
:105A180080B400AF034B1B6803F4C0631846BD464F
:105A280080BC70470004005880B400AF044B1B686A
:105A3800034A43F48043136000BFBD4680BC7047EF
:105A48000004005880B483B000AF164B1B68154A99
:105A580023F480431360144B1B68322202FB03F3C8
:105A6800124AA2FB03239B0C7B6002E07B68013B8C
:105A78007B600C4B5B6903F40073B3F5007F02D1C4
:105A88007B68002BF2D1074B5B6903F40073B3F515
:105A9800007F01D1032300E0002318460C37BD46E0
:105AA80080BC7047000400585400002083DE1B436C
:105AB80080B483B000AF0346FB71104B1B6823F022
:105AC80007030E4A43F0020313600D4B1B690C4A8F
